:100000000C942A000C9447000C9447000C94470071
:100010000C9447000C9447000C9447000C94470044
:100020000C9447000C9447000C9447000C94470034
:100030000C9447000C9447000C9447000C94470024
:100040000C9447000C9447000C9447000C94470014
:100050000C94470011241FBECFE5D8E0DEBFCDBF12
:1000600010E0A0E6B0E0EAEAFAE002C005900D92E6
:10007000A238B107D9F710E0A2E8B0E001C01D92A4
:10008000A238B107E1F70E941D030C9453050C94AC
:10009000000040E00E94500008950E9472010895FF
:1000A000843409F471C0853448F4823499F183347E
:1000B00008F04DC0813409F083C00FC0823651F181
:1000C000833620F4813609F07BC007C0833609F4FB
:1000D0003EC0843609F074C057C0413069F42AB379
:1000E00081E090E0AC0102C0440F551F6A95E2F731
:1000F000BA01622B6ABB08952AB381E090E0AC019B
:1001000002C0440F551F6A95E2F7BA016095622359
:100110006ABB0895413069F427B381E090E0AC01F7
:1001200002C0440F551F6A95E2F7BA01622B67BB04
:10013000089527B381E090E0AC0102C0440F551F41
:100140006A95E2F7BA016095622367BB0895413072
:1001500069F424B381E090E0AC0102C0440F551F64
:100160006A95E2F7BA01622B64BB089524B381E07B
:1001700090E0AC0102C0440F551F6A95E2F7BA0146
:100180006095622364BB0895413069F421B381E036
:1001900090E0AC0102C0440F551F6A95E2F7BA0126
:1001A000622B61BB089521B381E090E0AC0102C0F5
:1001B000440F551F6A95E2F7BA016095622361BB4F
:1001C0000895843409F471C0853448F4823499F177
:1001D000833408F04DC0813409F083C00FC08236EB
:1001E00051F1833620F4813609F07BC007C0833695
:1001F00009F43EC0843609F074C057C0413069F438
:100200002BB381E090E0AC0102C0440F551F6A950A
:10021000E2F7BA01622B6BBB08952BB381E090E04B
:10022000AC0102C0440F551F6A95E2F7BA01609510
:1002300062236BBB0895413069F428B381E090E0FC
:10024000AC0102C0440F551F6A95E2F7BA01622B58
:1002500068BB089528B381E090E0AC0102C0440F70
:10026000551F6A95E2F7BA016095622368BB08954D
:10027000413069F425B381E090E0AC0102C0440F45
:10028000551F6A95E2F7BA01622B65BB089525B345
:1002900081E090E0AC0102C0440F551F6A95E2F77F
:1002A000BA016095622365BB0895413069F422B3B9
:1002B00081E090E0AC0102C0440F551F6A95E2F75F
:1002C000BA01622B62BB089522B381E090E0AC01D9
:1002D00002C0440F551F6A95E2F7BA016095622388
:1002E00062BB0895843409F451C0853440F48234EB
:1002F00039F18334C0F5813409F05AC00EC082361A
:10030000F9F0833620F4813609F052C006C08336F6
:1003100051F1843609F04CC039C029B381E090E036
:10032000062E02C0880F991F0A94E2F730E082235C
:10033000932302C0959587956A95E2F7982F38C068
:1003400026B381E090E0062E02C0880F991F0A9420
:10035000E2F730E08223932302C0959587956A9552
:10036000E2F7982F25C023B381E090E0062E02C06B
:10037000880F991F0A94E2F730E08223932302C08A
:10038000959587956A95E2F7982F12C020B381E082
:1003900090E0062E02C0880F991F0A94E2F730E021
:1003A0008223932302C0959587956A95E2F7982F4B
:1003B000892F0895843409F43DC0853440F4823493
:1003C000F9F0833450F5813409F040C00CC0823616
:1003D000B9F0833618F48136C9F505C08336E9F0E3
:1003E0008436A1F527C02BB381E090E0AC0102C0B8
:1003F000440F551F6A95E2F7BA0162276BBB089557
:1004000028B381E090E0AC0102C0440F551F6A950B
:10041000E2F7BA01622768BB089525B381E090E056
:10042000AC0102C0440F551F6A95E2F7BA0162277A
:1004300065BB089522B381E090E0AC0102C0440F97
:10044000551F6A95E2F7BA01622762BB08958434AA
:10045000D9F0853438F4823499F0833498F48134B7
:10046000A1F40CC0823661F0833618F4813669F449
:1004700005C0833639F0843641F406C06ABB08955E
:1004800067BB089564BB089561BB08958434D9F0B7
:10049000853438F4823499F0833498F48134A1F4AB
:1004A0000CC0823661F0833618F4813669F405C0D9
:1004B000833639F0843641F406C06BBB089568BBBF
:1004C000089565BB089562BB08958434D9F08534DE
:1004D00038F4823499F0833498F48134A1F40CC058
:1004E000823661F0833618F4813669F405C08336AC
:1004F00039F0843641F406C099B305C096B303C001
:1005000093B301C090B3892F0895843409F18534E1
:1005100038F48234A9F08334B8F48134E1F40CC0A7
:10052000823671F0833618F48136A9F405C083361B
:1005300059F0843681F40CC08BB380958BBB089541
:1005400088B3809588BB089585B3809585BB089551
:1005500082B3809582BB08956F704423C1F1629588
:10056000607F843469F1853440F48234D9F0833477
:1005700000F5813409F05DC00EC0823699F08336F3
:1005800020F4813609F055C006C0833691F08436D8
:1005900009F04FC015C08BB38F708BBB8BB3682B2A
:1005A0006BBB089588B38F7088BB88B3682B68BB1A
:1005B000089585B38F7085BB85B3682B65BB08959F
:1005C00082B38F7082BB82B3682B62BB0895843480
:1005D00051F1853438F48234C1F08334E8F4813445
:1005E00041F50CC0823689F0833618F4813609F55E
:1005F00005C0833689F08436E1F415C08BB3807F63
:100600008BBB8BB3682B6BBB089588B3807F88BB93
:1006100088B3682B68BB089585B3807F85BB85B39D
:10062000682B65BB089582B3807F82BB82B3682B41
:1006300062BB08950E94E10008950E94D50484E4FD
:1006400063E00E94490084E464E00E94490084E47D
:1006500065E00E94490084E466E00E94490084E469
:1006600067E00E94490081E064E00E942C0580E67A
:1006700090E00E941D0582E067E00E942C058BE659
:1006800090E00E941D058FE39DE0A3E08150904023
:10069000A040E1F700C000000E94130581E061E086
:1006A0000E942C0581E790E00E941D0581E06CE02E
:1006B0000E942C0585E790E00E941D0582E061E024
:1006C0000E942C0589E790E00E941D0582E06CE005
:1006D0000E942C058DE790E00E941D0500E0FF249C
:1006E000EE24DD240F2EF4E6BF2EF02D0F2EFAE0BF
:1006F000CF2EF02D0F2EF1E78F2EF0E09F2EF02D54
:100700000F2EF5E76F2EF0E07F2EF02D0F2EF9E77C
:100710004F2EF0E05F2EF02D0F2EFDE72F2EF0E094
:100720003F2EF02D10E084E463E00E944D00813004
:1007300091F5DD2DDF5F63E00E942C05DA3030F4A7
:100740008D2D8F5C0E94FF04DD2E25C0D43670F401
:100750008D2F6C2D0E944705C92F805D0E94FF04DC
:100760008C2F805D0E94FF04DD2E15C08D2F6B2D18
:100770000E944705C92F805D0E94FF048C2F6C2DBD
:100780000E944705C92F805D0E94FF048C2F805D69
:100790000E94FF04DD2E84E464E00E944D0081305D
:1007A00091F5DE2DDF5F6EE00E942C05DA3030F42B
:1007B0008E2D8F5C0E94FF04ED2E25C0D43670F480
:1007C0008D2F6C2D0E944705C92F805D0E94FF046C
:1007D0008C2F805D0E94FF04ED2E15C08D2F6B2D98
:1007E0000E944705C92F805D0E94FF048C2F6C2D4D
:1007F0000E944705C92F805D0E94FF048C2F805DF9
:100800000E94FF04ED2E84E465E00E944D008130DB
:1008100099F5DF2DDF5F82E063E00E942C05DA307E
:1008200030F48F2D8F5C0E94FF04FD2E25C0D4363E
:1008300070F48D2F6C2D0E944705C92F805D0E949A
:10084000FF048C2F805D0E94FF04FD2E15C08D2FAC
:100850006B2D0E944705C92F805D0E94FF048C2FDD
:100860006C2D0E944705C92F805D0E94FF048C2FCC
:10087000805D0E94FF04FD2E84E466E00E944D002E
:10088000813099F5D02FDF5F82E06EE00E942C0569
:10089000DA3030F4802F8F5C0E94FF040D2F25C0CA
:1008A000D43670F48D2F6C2D0E944705C92F805DC2
:1008B0000E94FF048C2F805D0E94FF040D2F15C045
:1008C0008D2F6B2D0E944705C92F805D0E94FF046C
:1008D0008C2F6C2D0E944705C92F805D0E94FF045C
:1008E0008C2F805D0E94FF040D2F84E467E00E943E
:1008F0004D00813011F50E94130581E061E00E94F6
:100900002C05C4010E941D0581E06CE00E942C05AD
:10091000C3010E941D0582E061E00E942C05C20116
:100920000E941D0582E06CE00E942C05C1010E941E
:100930001D05012FF12EE12ED12EAFE4B3EC11975E
:10094000F1F700C00000EFCE83E463E041E00E94D5
:10095000E10083EF91E00197F1F700C0000083E42C
:1009600063E040E00E94E10083EF91E00197F1F73E
:1009700000C000000895CF93C82F83E462E040E0F8
:100980000E94E10081E46C2F0E94460283E461E052
:1009900040E00E94E1000E94A40489EF90E00197EA
:1009A000F1F700C00000CF910895CF93DF9381E469
:1009B0006FEF0E94270283E461E041E00E94500053
:1009C00083E462E041E00E94500083E463E041E0A0
:1009D0000E945000CBEBD4E088E390E0FE01099543
:1009E00081E090E0FE0109958CE090E0FE01099520
:1009F00086E090E0FE010995DF91CF910895CF93B5
:100A0000C82F83E462E040E00E94E10081E46C2FA3
:100A10000E94460283E461E041E00E94E1000E94FE
:100A2000A404CF91089581E00E94BB0483EC99E077
:100A30000197F1F700C000000895CF93DF93EC0118
:100A40008881882331F021960E94FF0489918823B0
:100A5000D9F7DF91CF910895282F2150223070F4DB
:100A6000662371F0613170F4813019F4962F91583A
:100A70000AC0823041F4962F915405C090E803C01B
:100A800090E801C090E8892F0E94BB040895991B4B
:100A900079E004C0991F961708F0961B881F7A9575
:0A0AA000C9F780950895F894FFCF80
:100AAA0057454C434F4D4520544F002045564D2144
:100ABA0000413D3000423D3000433D3000443D306E
:020ACA0000002A
:00000001FF
