S0120000656570726F6D746573742E73726563CA
S11300000C942A000C9447000C9447000C9447006D
S11300100C9447000C9447000C9447000C94470040
S11300200C9447000C9447000C9447000C94470030
S11300300C9447000C9447000C9447000C94470020
S11300400C9447000C9447000C9447000C94470010
S11300500C94470011241FBECFE5D8E0DEBFCDBF0E
S113006010E0A0E6B0E0ECEBF0E002C005900D92E9
S1130070A036B107D9F710E0A0E6B0E001C01D92A8
S1130080A036B107E1F70E9449000C945C000C947F
S1130090000080E390E060E50E944F00FFCF8EBB3C
S11300A09FBB6DBBE29AE19AE199FECF08958EBBA6
S10F00B09FBBE09A8DB30895F894FFCF35
S9030000FC
