:100000000C942A000C9447000C9447000C94470071
:100010000C9447000C9447000C9447000C94470044
:100020000C9447000C9447000C9447000C94470034
:100030000C9447000C9447000C9447000C94470024
:100040000C9447000C9447000C9447000C94470014
:100050000C94470011241FBECFE5D8E0DEBFCDBF12
:1000600010E0A0E6B0E0E6EEF8E002C005900D92E8
:10007000AC36B107D9F710E0ACE6B0E001C01D9294
:10008000AC36B107E1F70E9449000C9471040C945E
:1000900000000E94F10380E40E94D30380E00E94EC
:1000A0001F0484E00E941F048AE00E941F0485E16F
:1000B0000E941F048BE00E941F048FE10E941F0416
:1000C00080E00E941F0480E00E941F0480E00E94E4
:1000D0001F0481E00E941F0481E00E941F0481E050
:1000E0000E941F0481E00E941F0481E00E941F04FF
:1000F00081E00E941F0480E00E941F0480E00E94B3
:100100001F0480E00E941F0480E00E941F0484E01E
:100110000E941F0481E00E941F048FE10E941F04BF
:1001200080E00E941F0480E00E941F0480E00E9483
:100130001F0480E00E941F0480E00E941F0481E0F1
:100140000E941F0481E00E941F048FE10E941F048F
:1001500084E00E941F0480E00E941F0482E060E1AE
:100160000E94560480E00E941F0482E06FE00E941B
:10017000560482E00E941F0482E06EE00E94560452
:1001800081E00E941F0482E06CE00E94560482E03D
:100190000E941F0482E06BE00E94560483E00E94EC
:1001A0001F0482E06AE00E94560480E00E941F045F
:1001B00082E069E00E94560481E00E941F0482E010
:1001C00068E00E94560482E00E941F0481E061E022
:1001D0000E94560480E690E00E944704FFCF8434DA
:1001E00009F471C0853448F4823499F1833408F0FD
:1001F0004DC0813409F083C00FC0823651F183367F
:1002000020F4813609F07BC007C0833609F43EC074
:10021000843609F074C057C0413069F42AB381E0D4
:1002200090E0AC0102C0440F551F6A95E2F7BA0195
:10023000622B6ABB08952AB381E090E0AC0102C052
:10024000440F551F6A95E2F7BA01609562236ABBB5
:100250000895413069F427B381E090E0AC0102C019
:10026000440F551F6A95E2F7BA01622B67BB0895E8
:1002700027B381E090E0AC0102C0440F551F6A959E
:10028000E2F7BA016095622367BB0895413069F4D3
:1002900024B381E090E0AC0102C0440F551F6A9581
:1002A000E2F7BA01622B64BB089524B381E090E0C9
:1002B000AC0102C0440F551F6A95E2F7BA01609580
:1002C000622364BB0895413069F421B381E090E07A
:1002D000AC0102C0440F551F6A95E2F7BA01622BC8
:1002E00061BB089521B381E090E0AC0102C0440FEE
:1002F000551F6A95E2F7BA016095622361BB0895C4
:10030000843409F471C0853448F4823499F183341B
:1003100008F04DC0813409F083C00FC0823651F11E
:10032000833620F4813609F07BC007C0833609F498
:100330003EC0843609F074C057C0413069F42BB315
:1003400081E090E0AC0102C0440F551F6A95E2F7CE
:10035000BA01622B6BBB08952BB381E090E0AC0136
:1003600002C0440F551F6A95E2F7BA0160956223F7
:100370006BBB0895413069F428B381E090E0AC0193
:1003800002C0440F551F6A95E2F7BA01622B68BBA1
:10039000089528B381E090E0AC0102C0440F551FDE
:1003A0006A95E2F7BA016095622368BB089541300F
:1003B00069F425B381E090E0AC0102C0440F551F01
:1003C0006A95E2F7BA01622B65BB089525B381E017
:1003D00090E0AC0102C0440F551F6A95E2F7BA01E4
:1003E0006095622365BB0895413069F422B381E0D2
:1003F00090E0AC0102C0440F551F6A95E2F7BA01C4
:10040000622B62BB089522B381E090E0AC0102C090
:10041000440F551F6A95E2F7BA016095622362BBEB
:100420000895843409F451C0853440F4823439F19C
:100430008334C0F5813409F05AC00EC08236F9F019
:10044000833620F4813609F052C006C0833651F15C
:10045000843609F04CC039C029B381E090E0062E03
:1004600002C0880F991F0A94E2F730E08223932399
:1004700002C0959587956A95E2F7982F38C026B304
:1004800081E090E0062E02C0880F991F0A94E2F7DF
:1004900030E08223932302C0959587956A95E2F711
:1004A000982F25C023B381E090E0062E02C0880F6C
:1004B000991F0A94E2F730E08223932302C09595B6
:1004C00087956A95E2F7982F12C020B381E090E0FB
:1004D000062E02C0880F991F0A94E2F730E08223AB
:1004E000932302C0959587956A95E2F7982F892FF7
:1004F0000895843409F43DC0853440F48234F9F021
:10050000833450F5813409F040C00CC08236B9F014
:10051000833618F48136C9F505C08336E9F0843690
:10052000A1F527C02BB381E090E0AC0102C0440FDD
:10053000551F6A95E2F7BA0162276BBB089528B38D
:1005400081E090E0AC0102C0440F551F6A95E2F7CC
:10055000BA01622768BB089525B381E090E0AC0141
:1005600002C0440F551F6A95E2F7BA01622765BBC6
:10057000089522B381E090E0AC0102C0440F551F02
:100580006A95E2F7BA01622762BB08958434D9F014
:10059000853438F4823499F0833498F48134A1F4AA
:1005A0000CC0823661F0833618F4813669F405C0D8
:1005B000833639F0843641F406C06ABB089567BBC0
:1005C000089564BB089561BB08958434D9F08534DF
:1005D00038F4823499F0833498F48134A1F40CC057
:1005E000823661F0833618F4813669F405C08336AB
:1005F00039F0843641F406C06BBB089568BB08959A
:1006000065BB089562BB08958434D9F0853438F40D
:10061000823499F0833498F48134A1F40CC082368A
:1006200061F0833618F4813669F405C0833639F0F9
:10063000843641F406C099B305C096B303C093B3A2
:1006400001C090B3892F0895843409F1853438F4BA
:100650008234A9F08334B8F48134E1F40CC08236DA
:1006600071F0833618F48136A9F405C0833659F049
:10067000843681F40CC08BB380958BBB089588B30E
:10068000809588BB089585B3809585BB089582B316
:10069000809582BB08956F704423C1F16295607F9D
:1006A000843469F1853440F48234D9F0833400F520
:1006B000813409F05DC00EC0823699F0833620F493
:1006C000813609F055C006C0833691F0843609F0B2
:1006D0004FC015C08BB38F708BBB8BB3682B6BBBBC
:1006E000089588B38F7088BB88B3682B68BB089562
:1006F00085B38F7085BB85B3682B65BB089582B3C6
:100700008F7082BB82B3682B62BB0895843451F131
:10071000853438F48234C1F08334E8F4813441F50F
:100720000CC0823689F0833618F4813609F505C08D
:10073000833689F08436E1F415C08BB3807F8BBBA0
:100740008BB3682B6BBB089588B3807F88BB88B35D
:10075000682B68BB089585B3807F85BB85B3682B04
:1007600065BB089582B3807F82BB82B3682B62BB76
:1007700008950E948001089583E463E041E00E94AF
:10078000800183EF91E00197F1F700C0000083E45E
:1007900063E040E00E94800183EF91E00197F1F770
:1007A00000C000000895CF93C82F83E462E040E0CA
:1007B0000E9480016C2F62956F7084E441E00E947A
:1007C0004B0383E461E040E00E9480010E94BC038F
:1007D00084E46C2F41E00E944B030E94BC03CF9144
:1007E0000895CF93DF9384E46FEF0E94C60283E401
:1007F00061E041E00E94EF0083E462E041E00E949A
:10080000EF0083E463E041E00E94EF00C3EDD3E03A
:1008100082E090E0FE01099588E290E0FE010995F2
:1008200081E090E0FE0109958CE090E0FE010995E1
:1008300086E090E0FE010995DF91CF910895CF9376
:10084000C82F83E462E040E00E9480016C2F629533
:100850006F7084E441E00E944B0383E461E041E077
:100860000E9480010E94BC0384E46C2F41E00E943E
:100870004B030E94BC03CF91089581E00E94D303F3
:1008800083EC99E00197F1F700C000000895CF9341
:10089000DF93EC018881882331F021960E941F04A8
:1008A00089918823D9F7DF91CF910895282F21507E
:1008B000223070F4662371F0613170F4813019F4E4
:1008C000962F91580AC0823041F4962F915405C05A
:1008D00090E803C090E801C090E8892F0E94D303FC
:0608E0000895F894FFCF1B
:0C08E60048414E41204E414248414E0026
:00000001FF
