:100000000C942A000C9447000C9447000C94470071
:100010000C9447000C9447000C9447000C94470044
:100020000C9447000C9447000C9447000C94470034
:100030000C9447000C9447000C9447000C94470024
:100040000C9447000C9447000C9447000C94470014
:100050000C94470011241FBECFE5D8E0DEBFCDBF12
:1000600010E0A0E6B0E0E6E7F9E002C005900D92EE
:10007000A037B107D9F710E0A0E7B0E001C01D92AA
:10008000A037B107E1F70E9449000C94B9040C9421
:1000900000000E9447040E94A5030E94C4038F3FF2
:1000A00059F00E94C403813419F40E94850404C0ED
:1000B0000E94C4030E9471048FE493EC0197F1F74E
:1000C00000C00000EACF40E00E946A0008950E944C
:1000D0008C010895843409F471C0853448F4823465
:1000E00099F1833408F04DC0813409F083C00FC00A
:1000F000823651F1833620F4813609F07BC007C087
:10010000833609F43EC0843609F074C057C04130CC
:1001100069F42AB381E090E0AC0102C0440F551F9E
:100120006A95E2F7BA01622B6ABB08952AB381E0AF
:1001300090E0AC0102C0440F551F6A95E2F7BA0186
:10014000609562236ABB0895413069F427B381E06A
:1001500090E0AC0102C0440F551F6A95E2F7BA0166
:10016000622B67BB089527B381E090E0AC0102C029
:10017000440F551F6A95E2F7BA016095622367BB89
:100180000895413069F424B381E090E0AC0102C0ED
:10019000440F551F6A95E2F7BA01622B64BB0895BC
:1001A00024B381E090E0AC0102C0440F551F6A9572
:1001B000E2F7BA016095622364BB0895413069F4A7
:1001C00021B381E090E0AC0102C0440F551F6A9555
:1001D000E2F7BA01622B61BB089521B381E090E0A0
:1001E000AC0102C0440F551F6A95E2F7BA01609551
:1001F000622361BB0895843409F471C0853448F4E6
:10020000823499F1833408F04DC0813409F083C001
:100210000FC0823651F1833620F4813609F07BC05D
:1002200007C0833609F43EC0843609F074C057C055
:10023000413069F42BB381E090E0AC0102C0440F7F
:10024000551F6A95E2F7BA01622B6BBB08952BB379
:1002500081E090E0AC0102C0440F551F6A95E2F7BF
:10026000BA01609562236BBB0895413069F428B3ED
:1002700081E090E0AC0102C0440F551F6A95E2F79F
:10028000BA01622B68BB089528B381E090E0AC010D
:1002900002C0440F551F6A95E2F7BA0160956223C8
:1002A00068BB0895413069F425B381E090E0AC016A
:1002B00002C0440F551F6A95E2F7BA01622B65BB75
:1002C000089525B381E090E0AC0102C0440F551FB2
:1002D0006A95E2F7BA016095622365BB08954130E3
:1002E00069F422B381E090E0AC0102C0440F551FD5
:1002F0006A95E2F7BA01622B62BB089522B381E0EE
:1003000090E0AC0102C0440F551F6A95E2F7BA01B4
:100310006095622362BB0895843409F451C085342A
:1003200040F4823439F18334C0F5813409F05AC085
:100330000EC08236F9F0833620F4813609F052C0BF
:1003400006C0833651F1843609F04CC039C029B358
:1003500081E090E0062E02C0880F991F0A94E2F710
:1003600030E08223932302C0959587956A95E2F742
:10037000982F38C026B381E090E0062E02C0880F87
:10038000991F0A94E2F730E08223932302C09595E7
:1003900087956A95E2F7982F25C023B381E090E016
:1003A000062E02C0880F991F0A94E2F730E08223DC
:1003B000932302C0959587956A95E2F7982F12C00E
:1003C00020B381E090E0062E02C0880F991F0A94A6
:1003D000E2F730E08223932302C0959587956A95D2
:1003E000E2F7982F892F0895843409F43DC08534AD
:1003F00040F48234F9F0833450F5813409F040C080
:100400000CC08236B9F0833618F48136C9F505C0C0
:100410008336E9F08436A1F527C02BB381E090E064
:10042000AC0102C0440F551F6A95E2F7BA0162277A
:100430006BBB089528B381E090E0AC0102C0440F8B
:10044000551F6A95E2F7BA01622768BB089525B384
:1004500081E090E0AC0102C0440F551F6A95E2F7BD
:10046000BA01622765BB089522B381E090E0AC0138
:1004700002C0440F551F6A95E2F7BA01622762BBBA
:1004800008958434D9F0853438F4823499F0833473
:1004900098F48134A1F40CC0823661F0833618F4EC
:1004A000813669F405C0833639F0843641F406C0DC
:1004B0006ABB089567BB089564BB089561BB089546
:1004C0008434D9F0853438F4823499F0833498F444
:1004D0008134A1F40CC0823661F0833618F4813681
:1004E00069F405C0833639F0843641F406C06BBB2D
:1004F000089568BB089565BB089562BB0895843470
:10050000D9F0853438F4823499F0833498F4813406
:10051000A1F40CC0823661F0833618F4813669F498
:1005200005C0833639F0843641F406C099B305C05E
:1005300096B303C093B301C090B3892F0895843458
:1005400009F1853438F48234A9F08334B8F4813465
:10055000E1F40CC0823671F0833618F48136A9F4C8
:1005600005C0833659F0843681F40CC08BB3809576
:100570008BBB089588B3809588BB089585B380951B
:1005800085BB089582B3809582BB08956F70442324
:10059000C1F16295607F843469F1853440F482341E
:1005A000D9F0833400F5813409F05DC00EC0823685
:1005B00099F0833620F4813609F055C006C08336A1
:1005C00091F0843609F04FC015C08AB38F708ABB92
:1005D0008AB3682B6ABB089587B38F7087BB87B3D4
:1005E000682B67BB089585B38F7085BB85B3682B77
:1005F00065BB089581B38F7081BB81B3682B61BBEC
:100600000895843451F1853438F48234C1F0833450
:10061000E8F4813441F50CC0823689F0833618F451
:10062000813609F505C0833689F08436E1F415C0BA
:100630008AB3807F8ABB8AB3682B6ABB089587B36D
:10064000807F87BB87B3682B67BB089584B3807FA7
:1006500084BB84B3682B64BB089581B3807F81BB66
:1006600081B3682B61BB08956F704423C1F162951B
:10067000607F843469F1853440F48234D9F0833466
:1006800000F5813409F05DC00EC0823699F08336E2
:1006900020F4813609F055C006C0833691F08436C7
:1006A00009F04FC015C08BB38F708BBB8BB3682B19
:1006B0006BBB089588B38F7088BB88B3682B68BB09
:1006C000089585B38F7085BB85B3682B65BB08958E
:1006D00082B38F7082BB82B3682B62BB089584346F
:1006E00051F1853438F48234C1F08334E8F4813434
:1006F00041F50CC0823689F0833618F4813609F54D
:1007000005C0833689F08436E1F415C08BB3807F51
:100710008BBB8BB3682B6BBB089588B3807F88BB82
:1007200088B3682B68BB089585B3807F85BB85B38C
:10073000682B65BB089582B3807F82BB82B3682B30
:1007400062BB08950E94FB00089581E46FE040E0E1
:100750000E94C60281E460E041E00E94C60281E49A
:1007600064E041E00E94A20381E465E041E00E9470
:10077000A20381E466E041E00E94A20381E467E015
:1007800041E00E94A2030895EF92FF921F93CF933E
:10079000DF93CDB7DEB760970FB6F894DEBF0FBE1C
:1007A000CDBFDE011196E0E6F0E080E101900D9210
:1007B0008150E1F7EE24FF2481E46FE040E00E94E5
:1007C000340381E46E2D40E00E94FB0010E0612FB5
:1007D0006C5F81E40E946700882389F4F701EE0FC3
:1007E000FF1FEE0FFF1FE10FF11D81E090E08C0F66
:1007F0009D1FE80FF91F80818F3F21F00BC01F5F05
:10080000143029F70894E11CF11C94E0E916F10476
:1008100099F68FEF60960FB6F894DEBF0FBECDBF8E
:10082000DF91CF911F91FF90EF90089583E463E0F3
:1008300041E00E94FB0083EF91E00197F1F700C0D7
:10084000000083E463E040E00E94FB0083EF91E05E
:100850000197F1F700C000000895CF93C82F83E4FB
:1008600062E040E00E94FB0084E46C2F0E94600282
:1008700083E461E040E00E94FB000E94160489EFDF
:1008800090E00197F1F700C00000CF910895CF9359
:10089000DF9384E46FEF0E94410283E461E041E072
:1008A0000E946A0083E462E041E00E946A0083E4FF
:1008B00063E041E00E946A00CDE2D4E088E390E08A
:1008C000FE01099581E090E0FE0109958EE090E03F
:1008D000FE01099586E090E0FE010995DF91CF9138
:1008E0000895CF93C82F83E462E040E00E94FB00AC
:1008F00084E46C2F0E94600283E461E041E00E9486
:10090000FB000E941604CF91089581E00E942D04FF
:1009100083EC99E00197F1F700C000000895CF93B0
:10092000DF93EC018881882331F021960E947104C5
:1009300089918823D9F7DF91CF910895282F2150ED
:10094000223070F4662371F0613170F4813019F453
:10095000962F91580AC0823041F4962F915405C0C9
:1009600090E803C090E801C090E8892F0E942D0410
:060970000895F894FFCF8A
:100976003738392F3435362A3132332D41303D2B35
:00000001FF
