S00C0000534146452E73726563F9
S11300000C942A000C9447000C9447000C9447006D
S11300100C9447000C9447000C9447000C94470040
S11300200C9447000C9447000C9447000C94470030
S11300300C9447000C9447000C9447000C94470020
S11300400C9447000C9447000C9447000C94470010
S11300500C94470011241FBECFE5D8E0DEBFCDBF0E
S113006010E0A0E6B0E0EAE7FBE002C005900D92E4
S1130070AE3CB107D9F710E0AEECB0E001C01D9280
S1130080A33DB107E1F70E94E1040C94BB050C9475
S1130090000040E00E94500008950E9472010895FB
S11300A0843409F471C0853448F4823499F183347A
S11300B008F04DC0813409F083C00FC0823651F17D
S11300C0833620F4813609F07BC007C0833609F4F7
S11300D03EC0843609F074C057C0413069F42AB375
S11300E081E090E0AC0102C0440F551F6A95E2F72D
S11300F0BA01622B6ABB08952AB381E090E0AC0197
S113010002C0440F551F6A95E2F7BA016095622355
S11301106ABB0895413069F427B381E090E0AC01F3
S113012002C0440F551F6A95E2F7BA01622B67BB00
S1130130089527B381E090E0AC0102C0440F551F3D
S11301406A95E2F7BA016095622367BB089541306E
S113015069F424B381E090E0AC0102C0440F551F60
S11301606A95E2F7BA01622B64BB089524B381E077
S113017090E0AC0102C0440F551F6A95E2F7BA0142
S11301806095622364BB0895413069F421B381E032
S113019090E0AC0102C0440F551F6A95E2F7BA0122
S11301A0622B61BB089521B381E090E0AC0102C0F1
S11301B0440F551F6A95E2F7BA016095622361BB4B
S11301C00895843409F471C0853448F4823499F173
S11301D0833408F04DC0813409F083C00FC08236E7
S11301E051F1833620F4813609F07BC007C0833691
S11301F009F43EC0843609F074C057C0413069F434
S11302002BB381E090E0AC0102C0440F551F6A9506
S1130210E2F7BA01622B6BBB08952BB381E090E047
S1130220AC0102C0440F551F6A95E2F7BA0160950C
S113023062236BBB0895413069F428B381E090E0F8
S1130240AC0102C0440F551F6A95E2F7BA01622B54
S113025068BB089528B381E090E0AC0102C0440F6C
S1130260551F6A95E2F7BA016095622368BB089549
S1130270413069F425B381E090E0AC0102C0440F41
S1130280551F6A95E2F7BA01622B65BB089525B341
S113029081E090E0AC0102C0440F551F6A95E2F77B
S11302A0BA016095622365BB0895413069F422B3B5
S11302B081E090E0AC0102C0440F551F6A95E2F75B
S11302C0BA01622B62BB089522B381E090E0AC01D5
S11302D002C0440F551F6A95E2F7BA016095622384
S11302E062BB0895843409F451C0853440F48234E7
S11302F039F18334C0F5813409F05AC00EC0823616
S1130300F9F0833620F4813609F052C006C08336F2
S113031051F1843609F04CC039C029B381E090E032
S1130320062E02C0880F991F0A94E2F730E0822358
S1130330932302C0959587956A95E2F7982F38C064
S113034026B381E090E0062E02C0880F991F0A941C
S1130350E2F730E08223932302C0959587956A954E
S1130360E2F7982F25C023B381E090E0062E02C067
S1130370880F991F0A94E2F730E08223932302C086
S1130380959587956A95E2F7982F12C020B381E07E
S113039090E0062E02C0880F991F0A94E2F730E01D
S11303A08223932302C0959587956A95E2F7982F47
S11303B0892F0895843409F43DC0853440F482348F
S11303C0F9F0833450F5813409F040C00CC0823612
S11303D0B9F0833618F48136C9F505C08336E9F0DF
S11303E08436A1F527C02BB381E090E0AC0102C0B4
S11303F0440F551F6A95E2F7BA0162276BBB089553
S113040028B381E090E0AC0102C0440F551F6A9507
S1130410E2F7BA01622768BB089525B381E090E052
S1130420AC0102C0440F551F6A95E2F7BA01622776
S113043065BB089522B381E090E0AC0102C0440F93
S1130440551F6A95E2F7BA01622762BB08958434A6
S1130450D9F0853438F4823499F0833498F48134B3
S1130460A1F40CC0823661F0833618F4813669F445
S113047005C0833639F0843641F406C06ABB08955A
S113048067BB089564BB089561BB08958434D9F0B3
S1130490853438F4823499F0833498F48134A1F4A7
S11304A00CC0823661F0833618F4813669F405C0D5
S11304B0833639F0843641F406C06BBB089568BBBB
S11304C0089565BB089562BB08958434D9F08534DA
S11304D038F4823499F0833498F48134A1F40CC054
S11304E0823661F0833618F4813669F405C08336A8
S11304F039F0843641F406C099B305C096B303C0FD
S113050093B301C090B3892F0895843409F18534DD
S113051038F48234A9F08334B8F48134E1F40CC0A3
S1130520823671F0833618F48136A9F405C0833617
S113053059F0843681F40CC08BB380958BBB08953D
S113054088B3809588BB089585B3809585BB08954D
S113055082B3809582BB08956F704423C1F1629584
S1130560607F843469F1853440F48234D9F0833473
S113057000F5813409F05DC00EC0823699F08336EF
S113058020F4813609F055C006C0833691F08436D4
S113059009F04FC015C08AB38F708ABB8AB3682B29
S11305A06ABB089587B38F7087BB87B3682B67BB1B
S11305B0089585B38F7085BB85B3682B65BB08959B
S11305C081B38F7081BB81B3682B61BB0895843480
S11305D051F1853438F48234C1F08334E8F4813441
S11305E041F50CC0823689F0833618F4813609F55A
S11305F005C0833689F08436E1F415C08AB3807F60
S11306008ABB8AB3682B6ABB089587B3807F87BB94
S113061087B3682B67BB089584B3807F84BB84B39E
S1130620682B64BB089581B3807F81BB81B3682B41
S113063061BB08956F704423C1F16295607F843477
S113064069F1853440F48234D9F0833400F581347F
S113065009F05DC00EC0823699F0833620F48136ED
S113066009F055C006C0833691F0843609F04FC0B6
S113067015C08BB38F708BBB8BB3682B6BBB08958A
S113068088B38F7088BB88B3682B68BB089585B323
S11306908F7085BB85B3682B65BB089582B38F705B
S11306A082BB82B3682B62BB0895843451F18534D4
S11306B038F48234C1F08334E8F4813441F50CC059
S11306C0823689F0833618F4813609F505C08336FD
S11306D089F08436E1F415C08BB3807F8BBB8BB378
S11306E0682B6BBB089588B3807F88BB88B3682B65
S11306F068BB089585B3807F85BB85B3682B65BBD4
S1130700089582B3807F82BB82B3682B62BB089555
S11307100E94E10008958EBB9FBB6DBBE29AE19AF3
S1130720E199FECF08958EBB9FBBE09A8DB30895E7
S113073081E46FE040E00E94AC0281E460E041E0CB
S11307400E94AC0281E464E041E00E94880381E4F9
S113075065E041E00E94880381E466E041E00E9494
S1130760880381E467E041E00E9488030895EF92E2
S1130770FF921F93CF93DF93CDB7DEB760970FB689
S1130780F894DEBF0FBECDBFDE011196E0E6F0E0C7
S113079080E101900D928150E1F7EE24FF2481E481
S11307A06FE040E00E941A0381E46E2D40E00E9455
S11307B0E10010E0612F6C5F81E40E944D0088230A
S11307C089F4F701EE0FFF1FEE0FFF1FE10FF11D7C
S11307D081E090E08C0F9D1FE80FF91F80818F3F0F
S11307E021F00BC01F5F143029F70894E11CF11CA1
S11307F094E0E916F10499F68FEF60960FB6F89439
S1130800DEBF0FBECDBFDF91CF911F91FF90EF9060
S1130810089583E463E041E00E94E10083EF91E006
S11308200197F1F700C0000083E463E040E00E9418
S1130830E10083EF91E00197F1F700C00000089513
S1130840CF93C82F83E462E040E00E94E10084E497
S11308506C2F0E94460283E461E040E00E94E100C4
S11308600E94090489EF90E00197F1F700C00000AD
S1130870CF910895CF93DF9384E46FEF0E94270212
S113088083E461E041E00E94500083E462E041E0DF
S11308900E94500083E463E041E00E945000C0E203
S11308A0D4E088E390E0FE01099581E090E0FE0148
S11308B009958CE090E0FE01099586E090E0FE0148
S11308C00995DF91CF910895CF93C82F83E462E017
S11308D040E00E94E10084E46C2F0E94460283E41D
S11308E061E041E00E94E1000E940904CF91089573
S11308F081E00E94200483EC99E00197F1F700C0A5
S113090000000895CF93DF93EC018881882331F0B0
S113091021960E94640489918823D9F7DF91CF91AD
S11309200895282F2150223070F4662371F061312C
S113093070F4813019F4962F91580AC0823041F432
S1130940962F915405C090E803C090E801C090E848
S1130950892F0E942004089580E790E00E94820479
S11309601092D2000E94B7038093CC008F3FD1F342
S11309700E9464048FE996E8A1E081509040A04071
S1130980E1F700C000006091D200645F81E00E9442
S113099091048AE20E9464048091D20090E08196DE
S11309A06091CC000E948B038091D2008F5F809372
S11309B0D2008430B8F280E290E060E00E948B03C1
S11309C008958F929F92AF92BF92CF92DF92EF924F
S11309D0FF921F93CF93DF930E9498030E943A04DF
S11309E080E290E00E9493038F3F11F40E94AC04D4
S11309F012E30F2EFCE7EF2EF0E0FF2EF02D0F2E6A
S1130A00FEECCF2EF0E0DF2EF02D0F2EF3EAAF2E0A
S1130A10F0E0BF2EF02D0F2EF2EB8F2EF0E09F2E84
S1130A20F02D0E947804C7010E9482041092D20023
S1130A30C091D200D0E00E94B703FE01E253FF4F01
S1130A4080838091D20090E082539F4FDC018C918F
S1130A508F3F71F30E9464048FE996E8A1E081500E
S1130A609040A040E1F700C000006091D200645FB4
S1130A7081E00E9491048AE20E9464048091D20081
S1130A808F5F8093D200843098F281E290E00E94DC
S1130A909303D6019C91891771F582E290E00E943C
S1130AA09303EFECF0E09081891729F583E290E05D
S1130AB00E949303A0EDB0E09C918917E1F484E2D5
S1130AC090E00E949303E1EDF0E09081891799F49E
S1130AD00E94780481E061E00E94910488E890E03B
S1130AE00E94820482E061E00E94910487E990E020
S1130AF00E94820432C01033F1F00E94780481E035
S1130B0061E00E949104C5010E94820482E061E0D8
S1130B100E949104C4010E948204812F0E946404F3
S1130B208FE39DE0A3E081509040A040E1F700C036
S1130B300000115076CF0E94780481E061E00E94A9
S1130B40910483EA90E00E94820482E061E00E94C2
S1130B50910480EC90E00E94820480E090E0DF91B8
S1130B60CF911F91FF90EF90DF90CF90BF90AF9007
S10D0B709F908F900895F894FFCF32
S1130B7A3738392F3435362A3132332D41303D2B2B
S1130B8A5345542050415353203A2000454E54456E
S1130B9A5220504153533A0050415353574F5244F1
S1130BAA2052494748540053414645204F50454E28
S1130BBA45440050415353574F52442057524F4EC5
S1130BCA47005452494553204C454654203A200084
S1110BDA5341464520434C4F53454400FF0011
S9030000FC
